{
	"contracts/SimpleStorage.sol": {
		"SimpleStorage": {
			"abi": [
				{
					"inputs": [
						{
							"internalType": "uint256",
							"name": "_favoriteNumber",
							"type": "uint256"
						},
						{
							"internalType": "string",
							"name": "_name",
							"type": "string"
						}
					],
					"name": "addPerson",
					"outputs": [],
					"stateMutability": "nonpayable",
					"type": "function"
				},
				{
					"inputs": [],
					"name": "favoriteNumber",
					"outputs": [
						{
							"internalType": "uint256",
							"name": "",
							"type": "uint256"
						}
					],
					"stateMutability": "view",
					"type": "function"
				},
				{
					"inputs": [
						{
							"internalType": "uint256",
							"name": "",
							"type": "uint256"
						}
					],
					"name": "people",
					"outputs": [
						{
							"internalType": "string",
							"name": "name",
							"type": "string"
						},
						{
							"internalType": "uint256",
							"name": "favoriteNumber",
							"type": "uint256"
						}
					],
					"stateMutability": "view",
					"type": "function"
				},
				{
					"inputs": [],
					"name": "retrieve",
					"outputs": [
						{
							"internalType": "uint256",
							"name": "",
							"type": "uint256"
						}
					],
					"stateMutability": "view",
					"type": "function"
				},
				{
					"inputs": [
						{
							"internalType": "uint256",
							"name": "_favoriteNumber",
							"type": "uint256"
						}
					],
					"name": "store",
					"outputs": [],
					"stateMutability": "nonpayable",
					"type": "function"
				}
			],
			"devdoc": {
				"kind": "dev",
				"methods": {},
				"version": 1
			},
			"evm": {
				"assembly": "    /* \"contracts/SimpleStorage.sol\":59:626  contract SimpleStorage{\r... */\n  mstore(0x40, 0x80)\n  callvalue\n  dup1\n  iszero\n  tag_1\n  jumpi\n  0x00\n  dup1\n  revert\ntag_1:\n  pop\n  dataSize(sub_0)\n  dup1\n  dataOffset(sub_0)\n  0x00\n  codecopy\n  0x00\n  return\nstop\n\nsub_0: assembly {\n        /* \"contracts/SimpleStorage.sol\":59:626  contract SimpleStorage{\r... */\n      mstore(0x40, 0x80)\n      callvalue\n      dup1\n      iszero\n      tag_1\n      jumpi\n      0x00\n      dup1\n      revert\n    tag_1:\n      pop\n      jumpi(tag_2, lt(calldatasize, 0x04))\n      shr(0xe0, calldataload(0x00))\n      dup1\n      0x2e64cec1\n      eq\n      tag_3\n      jumpi\n      dup1\n      0x471f7cdf\n      eq\n      tag_4\n      jumpi\n      dup1\n      0x6057361d\n      eq\n      tag_5\n      jumpi\n      dup1\n      0x9e7a13ad\n      eq\n      tag_6\n      jumpi\n      dup1\n      0xbc832d4e\n      eq\n      tag_7\n      jumpi\n    tag_2:\n      0x00\n      dup1\n      revert\n        /* \"contracts/SimpleStorage.sol\":534:623  function retrieve() public view returns(uint256) {\r... */\n    tag_3:\n      tag_8\n      tag_9\n      jump\t// in\n    tag_8:\n      mload(0x40)\n      tag_10\n      swap2\n      swap1\n      tag_11\n      jump\t// in\n    tag_10:\n      mload(0x40)\n      dup1\n      swap2\n      sub\n      swap1\n      return\n        /* \"contracts/SimpleStorage.sol\":88:118  uint256 public  favoriteNumber */\n    tag_4:\n      tag_12\n      tag_13\n      jump\t// in\n    tag_12:\n      mload(0x40)\n      tag_14\n      swap2\n      swap1\n      tag_11\n      jump\t// in\n    tag_14:\n      mload(0x40)\n      dup1\n      swap2\n      sub\n      swap1\n      return\n        /* \"contracts/SimpleStorage.sol\":239:339  function store(uint _favoriteNumber) public virtual{\r... */\n    tag_5:\n      tag_15\n      0x04\n      dup1\n      calldatasize\n      sub\n      dup2\n      add\n      swap1\n      tag_16\n      swap2\n      swap1\n      tag_17\n      jump\t// in\n    tag_16:\n      tag_18\n      jump\t// in\n    tag_15:\n      stop\n        /* \"contracts/SimpleStorage.sol\":210:232  People[] public people */\n    tag_6:\n      tag_19\n      0x04\n      dup1\n      calldatasize\n      sub\n      dup2\n      add\n      swap1\n      tag_20\n      swap2\n      swap1\n      tag_17\n      jump\t// in\n    tag_20:\n      tag_21\n      jump\t// in\n    tag_19:\n      mload(0x40)\n      tag_22\n      swap3\n      swap2\n      swap1\n      tag_23\n      jump\t// in\n    tag_22:\n      mload(0x40)\n      dup1\n      swap2\n      sub\n      swap1\n      return\n        /* \"contracts/SimpleStorage.sol\":347:522  function addPerson(uint _favoriteNumber, string memory _name) public{\r... */\n    tag_7:\n      tag_24\n      0x04\n      dup1\n      calldatasize\n      sub\n      dup2\n      add\n      swap1\n      tag_25\n      swap2\n      swap1\n      tag_26\n      jump\t// in\n    tag_25:\n      tag_27\n      jump\t// in\n    tag_24:\n      stop\n        /* \"contracts/SimpleStorage.sol\":534:623  function retrieve() public view returns(uint256) {\r... */\n    tag_9:\n        /* \"contracts/SimpleStorage.sol\":574:581  uint256 */\n      0x00\n        /* \"contracts/SimpleStorage.sol\":601:615  favoriteNumber */\n      dup1\n      sload\n        /* \"contracts/SimpleStorage.sol\":594:615  return favoriteNumber */\n      swap1\n      pop\n        /* \"contracts/SimpleStorage.sol\":534:623  function retrieve() public view returns(uint256) {\r... */\n      swap1\n      jump\t// out\n        /* \"contracts/SimpleStorage.sol\":88:118  uint256 public  favoriteNumber */\n    tag_13:\n      sload(0x00)\n      dup2\n      jump\t// out\n        /* \"contracts/SimpleStorage.sol\":239:339  function store(uint _favoriteNumber) public virtual{\r... */\n    tag_18:\n        /* \"contracts/SimpleStorage.sol\":316:331  _favoriteNumber */\n      dup1\n        /* \"contracts/SimpleStorage.sol\":301:315  favoriteNumber */\n      0x00\n        /* \"contracts/SimpleStorage.sol\":301:331  favoriteNumber=_favoriteNumber */\n      dup2\n      swap1\n      sstore\n      pop\n        /* \"contracts/SimpleStorage.sol\":239:339  function store(uint _favoriteNumber) public virtual{\r... */\n      pop\n      jump\t// out\n        /* \"contracts/SimpleStorage.sol\":210:232  People[] public people */\n    tag_21:\n      0x01\n      dup2\n      dup2\n      sload\n      dup2\n      lt\n      tag_30\n      jumpi\n      0x00\n      dup1\n      revert\n    tag_30:\n      swap1\n      0x00\n      mstore\n      keccak256(0x00, 0x20)\n      swap1\n      0x02\n      mul\n      add\n      0x00\n      swap2\n      pop\n      swap1\n      pop\n      dup1\n      0x00\n      add\n      dup1\n      sload\n      tag_32\n      swap1\n      tag_33\n      jump\t// in\n    tag_32:\n      dup1\n      0x1f\n      add\n      0x20\n      dup1\n      swap2\n      div\n      mul\n      0x20\n      add\n      mload(0x40)\n      swap1\n      dup2\n      add\n      0x40\n      mstore\n      dup1\n      swap3\n      swap2\n      swap1\n      dup2\n      dup2\n      mstore\n      0x20\n      add\n      dup3\n      dup1\n      sload\n      tag_34\n      swap1\n      tag_33\n      jump\t// in\n    tag_34:\n      dup1\n      iszero\n      tag_35\n      jumpi\n      dup1\n      0x1f\n      lt\n      tag_36\n      jumpi\n      0x0100\n      dup1\n      dup4\n      sload\n      div\n      mul\n      dup4\n      mstore\n      swap2\n      0x20\n      add\n      swap2\n      jump(tag_35)\n    tag_36:\n      dup3\n      add\n      swap2\n      swap1\n      0x00\n      mstore\n      keccak256(0x00, 0x20)\n      swap1\n    tag_37:\n      dup2\n      sload\n      dup2\n      mstore\n      swap1\n      0x01\n      add\n      swap1\n      0x20\n      add\n      dup1\n      dup4\n      gt\n      tag_37\n      jumpi\n      dup3\n      swap1\n      sub\n      0x1f\n      and\n      dup3\n      add\n      swap2\n    tag_35:\n      pop\n      pop\n      pop\n      pop\n      pop\n      swap1\n      dup1\n      0x01\n      add\n      sload\n      swap1\n      pop\n      dup3\n      jump\t// out\n        /* \"contracts/SimpleStorage.sol\":347:522  function addPerson(uint _favoriteNumber, string memory _name) public{\r... */\n    tag_27:\n        /* \"contracts/SimpleStorage.sol\":426:449  People memory newPerson */\n      0x00\n        /* \"contracts/SimpleStorage.sol\":452:481  People(_name,_favoriteNumber) */\n      mload(0x40)\n      dup1\n      0x40\n      add\n      0x40\n      mstore\n      dup1\n        /* \"contracts/SimpleStorage.sol\":459:464  _name */\n      dup4\n        /* \"contracts/SimpleStorage.sol\":452:481  People(_name,_favoriteNumber) */\n      dup2\n      mstore\n      0x20\n      add\n        /* \"contracts/SimpleStorage.sol\":465:480  _favoriteNumber */\n      dup5\n        /* \"contracts/SimpleStorage.sol\":452:481  People(_name,_favoriteNumber) */\n      dup2\n      mstore\n      pop\n        /* \"contracts/SimpleStorage.sol\":426:481  People memory newPerson = People(_name,_favoriteNumber) */\n      swap1\n      pop\n        /* \"contracts/SimpleStorage.sol\":492:498  people */\n      0x01\n        /* \"contracts/SimpleStorage.sol\":504:513  newPerson */\n      dup2\n        /* \"contracts/SimpleStorage.sol\":492:514  people.push(newPerson) */\n      swap1\n      dup1\n      0x01\n      dup2\n      sload\n      add\n      dup1\n      dup3\n      sstore\n      dup1\n      swap2\n      pop\n      pop\n      0x01\n      swap1\n      sub\n      swap1\n      0x00\n      mstore\n      keccak256(0x00, 0x20)\n      swap1\n      0x02\n      mul\n      add\n      0x00\n      swap1\n      swap2\n      swap1\n      swap2\n      swap1\n      swap2\n      pop\n      0x00\n      dup3\n      add\n      mload\n      dup2\n      0x00\n      add\n      swap1\n      dup1\n      mload\n      swap1\n      0x20\n      add\n      swap1\n      tag_40\n      swap3\n      swap2\n      swap1\n      tag_41\n      jump\t// in\n    tag_40:\n      pop\n      0x20\n      dup3\n      add\n      mload\n      dup2\n      0x01\n      add\n      sstore\n      pop\n      pop\n        /* \"contracts/SimpleStorage.sol\":415:522  {\r... */\n      pop\n        /* \"contracts/SimpleStorage.sol\":347:522  function addPerson(uint _favoriteNumber, string memory _name) public{\r... */\n      pop\n      pop\n      jump\t// out\n    tag_41:\n      dup3\n      dup1\n      sload\n      tag_42\n      swap1\n      tag_33\n      jump\t// in\n    tag_42:\n      swap1\n      0x00\n      mstore\n      keccak256(0x00, 0x20)\n      swap1\n      0x1f\n      add\n      0x20\n      swap1\n      div\n      dup2\n      add\n      swap3\n      dup3\n      tag_44\n      jumpi\n      0x00\n      dup6\n      sstore\n      jump(tag_43)\n    tag_44:\n      dup3\n      0x1f\n      lt\n      tag_45\n      jumpi\n      dup1\n      mload\n      not(0xff)\n      and\n      dup4\n      dup1\n      add\n      or\n      dup6\n      sstore\n      jump(tag_43)\n    tag_45:\n      dup3\n      dup1\n      add\n      0x01\n      add\n      dup6\n      sstore\n      dup3\n      iszero\n      tag_43\n      jumpi\n      swap2\n      dup3\n      add\n    tag_46:\n      dup3\n      dup2\n      gt\n      iszero\n      tag_47\n      jumpi\n      dup3\n      mload\n      dup3\n      sstore\n      swap2\n      0x20\n      add\n      swap2\n      swap1\n      0x01\n      add\n      swap1\n      jump(tag_46)\n    tag_47:\n    tag_43:\n      pop\n      swap1\n      pop\n      tag_48\n      swap2\n      swap1\n      tag_49\n      jump\t// in\n    tag_48:\n      pop\n      swap1\n      jump\t// out\n    tag_49:\n    tag_50:\n      dup1\n      dup3\n      gt\n      iszero\n      tag_51\n      jumpi\n      0x00\n      dup2\n      0x00\n      swap1\n      sstore\n      pop\n      0x01\n      add\n      jump(tag_50)\n    tag_51:\n      pop\n      swap1\n      jump\t// out\n        /* \"#utility.yul\":7:419   */\n    tag_53:\n        /* \"#utility.yul\":85:90   */\n      0x00\n        /* \"#utility.yul\":110:176   */\n      tag_55\n        /* \"#utility.yul\":126:175   */\n      tag_56\n        /* \"#utility.yul\":168:174   */\n      dup5\n        /* \"#utility.yul\":126:175   */\n      tag_57\n      jump\t// in\n    tag_56:\n        /* \"#utility.yul\":110:176   */\n      tag_58\n      jump\t// in\n    tag_55:\n        /* \"#utility.yul\":101:176   */\n      swap1\n      pop\n        /* \"#utility.yul\":199:205   */\n      dup3\n        /* \"#utility.yul\":192:197   */\n      dup2\n        /* \"#utility.yul\":185:206   */\n      mstore\n        /* \"#utility.yul\":237:241   */\n      0x20\n        /* \"#utility.yul\":230:235   */\n      dup2\n        /* \"#utility.yul\":226:242   */\n      add\n        /* \"#utility.yul\":275:278   */\n      dup5\n        /* \"#utility.yul\":266:272   */\n      dup5\n        /* \"#utility.yul\":261:264   */\n      dup5\n        /* \"#utility.yul\":257:273   */\n      add\n        /* \"#utility.yul\":254:279   */\n      gt\n        /* \"#utility.yul\":251:363   */\n      iszero\n      tag_59\n      jumpi\n        /* \"#utility.yul\":282:361   */\n      tag_60\n      tag_61\n      jump\t// in\n    tag_60:\n        /* \"#utility.yul\":251:363   */\n    tag_59:\n        /* \"#utility.yul\":372:413   */\n      tag_62\n        /* \"#utility.yul\":406:412   */\n      dup5\n        /* \"#utility.yul\":401:404   */\n      dup3\n        /* \"#utility.yul\":396:399   */\n      dup6\n        /* \"#utility.yul\":372:413   */\n      tag_63\n      jump\t// in\n    tag_62:\n        /* \"#utility.yul\":91:419   */\n      pop\n        /* \"#utility.yul\":7:419   */\n      swap4\n      swap3\n      pop\n      pop\n      pop\n      jump\t// out\n        /* \"#utility.yul\":439:779   */\n    tag_64:\n        /* \"#utility.yul\":495:500   */\n      0x00\n        /* \"#utility.yul\":544:547   */\n      dup3\n        /* \"#utility.yul\":537:541   */\n      0x1f\n        /* \"#utility.yul\":529:535   */\n      dup4\n        /* \"#utility.yul\":525:542   */\n      add\n        /* \"#utility.yul\":521:548   */\n      slt\n        /* \"#utility.yul\":511:633   */\n      tag_66\n      jumpi\n        /* \"#utility.yul\":552:631   */\n      tag_67\n      tag_68\n      jump\t// in\n    tag_67:\n        /* \"#utility.yul\":511:633   */\n    tag_66:\n        /* \"#utility.yul\":669:675   */\n      dup2\n        /* \"#utility.yul\":656:676   */\n      calldataload\n        /* \"#utility.yul\":694:773   */\n      tag_69\n        /* \"#utility.yul\":769:772   */\n      dup5\n        /* \"#utility.yul\":761:767   */\n      dup3\n        /* \"#utility.yul\":754:758   */\n      0x20\n        /* \"#utility.yul\":746:752   */\n      dup7\n        /* \"#utility.yul\":742:759   */\n      add\n        /* \"#utility.yul\":694:773   */\n      tag_53\n      jump\t// in\n    tag_69:\n        /* \"#utility.yul\":685:773   */\n      swap2\n      pop\n        /* \"#utility.yul\":501:779   */\n      pop\n        /* \"#utility.yul\":439:779   */\n      swap3\n      swap2\n      pop\n      pop\n      jump\t// out\n        /* \"#utility.yul\":785:924   */\n    tag_70:\n        /* \"#utility.yul\":831:836   */\n      0x00\n        /* \"#utility.yul\":869:875   */\n      dup2\n        /* \"#utility.yul\":856:876   */\n      calldataload\n        /* \"#utility.yul\":847:876   */\n      swap1\n      pop\n        /* \"#utility.yul\":885:918   */\n      tag_72\n        /* \"#utility.yul\":912:917   */\n      dup2\n        /* \"#utility.yul\":885:918   */\n      tag_73\n      jump\t// in\n    tag_72:\n        /* \"#utility.yul\":785:924   */\n      swap3\n      swap2\n      pop\n      pop\n      jump\t// out\n        /* \"#utility.yul\":930:1259   */\n    tag_17:\n        /* \"#utility.yul\":989:995   */\n      0x00\n        /* \"#utility.yul\":1038:1040   */\n      0x20\n        /* \"#utility.yul\":1026:1035   */\n      dup3\n        /* \"#utility.yul\":1017:1024   */\n      dup5\n        /* \"#utility.yul\":1013:1036   */\n      sub\n        /* \"#utility.yul\":1009:1041   */\n      slt\n        /* \"#utility.yul\":1006:1125   */\n      iszero\n      tag_75\n      jumpi\n        /* \"#utility.yul\":1044:1123   */\n      tag_76\n      tag_77\n      jump\t// in\n    tag_76:\n        /* \"#utility.yul\":1006:1125   */\n    tag_75:\n        /* \"#utility.yul\":1164:1165   */\n      0x00\n        /* \"#utility.yul\":1189:1242   */\n      tag_78\n        /* \"#utility.yul\":1234:1241   */\n      dup5\n        /* \"#utility.yul\":1225:1231   */\n      dup3\n        /* \"#utility.yul\":1214:1223   */\n      dup6\n        /* \"#utility.yul\":1210:1232   */\n      add\n        /* \"#utility.yul\":1189:1242   */\n      tag_70\n      jump\t// in\n    tag_78:\n        /* \"#utility.yul\":1179:1242   */\n      swap2\n      pop\n        /* \"#utility.yul\":1135:1252   */\n      pop\n        /* \"#utility.yul\":930:1259   */\n      swap3\n      swap2\n      pop\n      pop\n      jump\t// out\n        /* \"#utility.yul\":1265:1919   */\n    tag_26:\n        /* \"#utility.yul\":1343:1349   */\n      0x00\n        /* \"#utility.yul\":1351:1357   */\n      dup1\n        /* \"#utility.yul\":1400:1402   */\n      0x40\n        /* \"#utility.yul\":1388:1397   */\n      dup4\n        /* \"#utility.yul\":1379:1386   */\n      dup6\n        /* \"#utility.yul\":1375:1398   */\n      sub\n        /* \"#utility.yul\":1371:1403   */\n      slt\n        /* \"#utility.yul\":1368:1487   */\n      iszero\n      tag_80\n      jumpi\n        /* \"#utility.yul\":1406:1485   */\n      tag_81\n      tag_77\n      jump\t// in\n    tag_81:\n        /* \"#utility.yul\":1368:1487   */\n    tag_80:\n        /* \"#utility.yul\":1526:1527   */\n      0x00\n        /* \"#utility.yul\":1551:1604   */\n      tag_82\n        /* \"#utility.yul\":1596:1603   */\n      dup6\n        /* \"#utility.yul\":1587:1593   */\n      dup3\n        /* \"#utility.yul\":1576:1585   */\n      dup7\n        /* \"#utility.yul\":1572:1594   */\n      add\n        /* \"#utility.yul\":1551:1604   */\n      tag_70\n      jump\t// in\n    tag_82:\n        /* \"#utility.yul\":1541:1604   */\n      swap3\n      pop\n        /* \"#utility.yul\":1497:1614   */\n      pop\n        /* \"#utility.yul\":1681:1683   */\n      0x20\n        /* \"#utility.yul\":1670:1679   */\n      dup4\n        /* \"#utility.yul\":1666:1684   */\n      add\n        /* \"#utility.yul\":1653:1685   */\n      calldataload\n        /* \"#utility.yul\":1712:1730   */\n      0xffffffffffffffff\n        /* \"#utility.yul\":1704:1710   */\n      dup2\n        /* \"#utility.yul\":1701:1731   */\n      gt\n        /* \"#utility.yul\":1698:1815   */\n      iszero\n      tag_83\n      jumpi\n        /* \"#utility.yul\":1734:1813   */\n      tag_84\n      tag_85\n      jump\t// in\n    tag_84:\n        /* \"#utility.yul\":1698:1815   */\n    tag_83:\n        /* \"#utility.yul\":1839:1902   */\n      tag_86\n        /* \"#utility.yul\":1894:1901   */\n      dup6\n        /* \"#utility.yul\":1885:1891   */\n      dup3\n        /* \"#utility.yul\":1874:1883   */\n      dup7\n        /* \"#utility.yul\":1870:1892   */\n      add\n        /* \"#utility.yul\":1839:1902   */\n      tag_64\n      jump\t// in\n    tag_86:\n        /* \"#utility.yul\":1829:1902   */\n      swap2\n      pop\n        /* \"#utility.yul\":1624:1912   */\n      pop\n        /* \"#utility.yul\":1265:1919   */\n      swap3\n      pop\n      swap3\n      swap1\n      pop\n      jump\t// out\n        /* \"#utility.yul\":1925:2289   */\n    tag_87:\n        /* \"#utility.yul\":2013:2016   */\n      0x00\n        /* \"#utility.yul\":2041:2080   */\n      tag_89\n        /* \"#utility.yul\":2074:2079   */\n      dup3\n        /* \"#utility.yul\":2041:2080   */\n      tag_90\n      jump\t// in\n    tag_89:\n        /* \"#utility.yul\":2096:2167   */\n      tag_91\n        /* \"#utility.yul\":2160:2166   */\n      dup2\n        /* \"#utility.yul\":2155:2158   */\n      dup6\n        /* \"#utility.yul\":2096:2167   */\n      tag_92\n      jump\t// in\n    tag_91:\n        /* \"#utility.yul\":2089:2167   */\n      swap4\n      pop\n        /* \"#utility.yul\":2176:2228   */\n      tag_93\n        /* \"#utility.yul\":2221:2227   */\n      dup2\n        /* \"#utility.yul\":2216:2219   */\n      dup6\n        /* \"#utility.yul\":2209:2213   */\n      0x20\n        /* \"#utility.yul\":2202:2207   */\n      dup7\n        /* \"#utility.yul\":2198:2214   */\n      add\n        /* \"#utility.yul\":2176:2228   */\n      tag_94\n      jump\t// in\n    tag_93:\n        /* \"#utility.yul\":2253:2282   */\n      tag_95\n        /* \"#utility.yul\":2275:2281   */\n      dup2\n        /* \"#utility.yul\":2253:2282   */\n      tag_96\n      jump\t// in\n    tag_95:\n        /* \"#utility.yul\":2248:2251   */\n      dup5\n        /* \"#utility.yul\":2244:2283   */\n      add\n        /* \"#utility.yul\":2237:2283   */\n      swap2\n      pop\n        /* \"#utility.yul\":2017:2289   */\n      pop\n        /* \"#utility.yul\":1925:2289   */\n      swap3\n      swap2\n      pop\n      pop\n      jump\t// out\n        /* \"#utility.yul\":2295:2413   */\n    tag_97:\n        /* \"#utility.yul\":2382:2406   */\n      tag_99\n        /* \"#utility.yul\":2400:2405   */\n      dup2\n        /* \"#utility.yul\":2382:2406   */\n      tag_100\n      jump\t// in\n    tag_99:\n        /* \"#utility.yul\":2377:2380   */\n      dup3\n        /* \"#utility.yul\":2370:2407   */\n      mstore\n        /* \"#utility.yul\":2295:2413   */\n      pop\n      pop\n      jump\t// out\n        /* \"#utility.yul\":2419:2842   */\n    tag_23:\n        /* \"#utility.yul\":2560:2564   */\n      0x00\n        /* \"#utility.yul\":2598:2600   */\n      0x40\n        /* \"#utility.yul\":2587:2596   */\n      dup3\n        /* \"#utility.yul\":2583:2601   */\n      add\n        /* \"#utility.yul\":2575:2601   */\n      swap1\n      pop\n        /* \"#utility.yul\":2647:2656   */\n      dup2\n        /* \"#utility.yul\":2641:2645   */\n      dup2\n        /* \"#utility.yul\":2637:2657   */\n      sub\n        /* \"#utility.yul\":2633:2634   */\n      0x00\n        /* \"#utility.yul\":2622:2631   */\n      dup4\n        /* \"#utility.yul\":2618:2635   */\n      add\n        /* \"#utility.yul\":2611:2658   */\n      mstore\n        /* \"#utility.yul\":2675:2753   */\n      tag_102\n        /* \"#utility.yul\":2748:2752   */\n      dup2\n        /* \"#utility.yul\":2739:2745   */\n      dup6\n        /* \"#utility.yul\":2675:2753   */\n      tag_87\n      jump\t// in\n    tag_102:\n        /* \"#utility.yul\":2667:2753   */\n      swap1\n      pop\n        /* \"#utility.yul\":2763:2835   */\n      tag_103\n        /* \"#utility.yul\":2831:2833   */\n      0x20\n        /* \"#utility.yul\":2820:2829   */\n      dup4\n        /* \"#utility.yul\":2816:2834   */\n      add\n        /* \"#utility.yul\":2807:2813   */\n      dup5\n        /* \"#utility.yul\":2763:2835   */\n      tag_97\n      jump\t// in\n    tag_103:\n        /* \"#utility.yul\":2419:2842   */\n      swap4\n      swap3\n      pop\n      pop\n      pop\n      jump\t// out\n        /* \"#utility.yul\":2848:3070   */\n    tag_11:\n        /* \"#utility.yul\":2941:2945   */\n      0x00\n        /* \"#utility.yul\":2979:2981   */\n      0x20\n        /* \"#utility.yul\":2968:2977   */\n      dup3\n        /* \"#utility.yul\":2964:2982   */\n      add\n        /* \"#utility.yul\":2956:2982   */\n      swap1\n      pop\n        /* \"#utility.yul\":2992:3063   */\n      tag_105\n        /* \"#utility.yul\":3060:3061   */\n      0x00\n        /* \"#utility.yul\":3049:3058   */\n      dup4\n        /* \"#utility.yul\":3045:3062   */\n      add\n        /* \"#utility.yul\":3036:3042   */\n      dup5\n        /* \"#utility.yul\":2992:3063   */\n      tag_97\n      jump\t// in\n    tag_105:\n        /* \"#utility.yul\":2848:3070   */\n      swap3\n      swap2\n      pop\n      pop\n      jump\t// out\n        /* \"#utility.yul\":3076:3205   */\n    tag_58:\n        /* \"#utility.yul\":3110:3116   */\n      0x00\n        /* \"#utility.yul\":3137:3157   */\n      tag_107\n      tag_108\n      jump\t// in\n    tag_107:\n        /* \"#utility.yul\":3127:3157   */\n      swap1\n      pop\n        /* \"#utility.yul\":3166:3199   */\n      tag_109\n        /* \"#utility.yul\":3194:3198   */\n      dup3\n        /* \"#utility.yul\":3186:3192   */\n      dup3\n        /* \"#utility.yul\":3166:3199   */\n      tag_110\n      jump\t// in\n    tag_109:\n        /* \"#utility.yul\":3076:3205   */\n      swap2\n      swap1\n      pop\n      jump\t// out\n        /* \"#utility.yul\":3211:3286   */\n    tag_108:\n        /* \"#utility.yul\":3244:3250   */\n      0x00\n        /* \"#utility.yul\":3277:3279   */\n      0x40\n        /* \"#utility.yul\":3271:3280   */\n      mload\n        /* \"#utility.yul\":3261:3280   */\n      swap1\n      pop\n        /* \"#utility.yul\":3211:3286   */\n      swap1\n      jump\t// out\n        /* \"#utility.yul\":3292:3600   */\n    tag_57:\n        /* \"#utility.yul\":3354:3358   */\n      0x00\n        /* \"#utility.yul\":3444:3462   */\n      0xffffffffffffffff\n        /* \"#utility.yul\":3436:3442   */\n      dup3\n        /* \"#utility.yul\":3433:3463   */\n      gt\n        /* \"#utility.yul\":3430:3486   */\n      iszero\n      tag_113\n      jumpi\n        /* \"#utility.yul\":3466:3484   */\n      tag_114\n      tag_115\n      jump\t// in\n    tag_114:\n        /* \"#utility.yul\":3430:3486   */\n    tag_113:\n        /* \"#utility.yul\":3504:3533   */\n      tag_116\n        /* \"#utility.yul\":3526:3532   */\n      dup3\n        /* \"#utility.yul\":3504:3533   */\n      tag_96\n      jump\t// in\n    tag_116:\n        /* \"#utility.yul\":3496:3533   */\n      swap1\n      pop\n        /* \"#utility.yul\":3588:3592   */\n      0x20\n        /* \"#utility.yul\":3582:3586   */\n      dup2\n        /* \"#utility.yul\":3578:3593   */\n      add\n        /* \"#utility.yul\":3570:3593   */\n      swap1\n      pop\n        /* \"#utility.yul\":3292:3600   */\n      swap2\n      swap1\n      pop\n      jump\t// out\n        /* \"#utility.yul\":3606:3705   */\n    tag_90:\n        /* \"#utility.yul\":3658:3664   */\n      0x00\n        /* \"#utility.yul\":3692:3697   */\n      dup2\n        /* \"#utility.yul\":3686:3698   */\n      mload\n        /* \"#utility.yul\":3676:3698   */\n      swap1\n      pop\n        /* \"#utility.yul\":3606:3705   */\n      swap2\n      swap1\n      pop\n      jump\t// out\n        /* \"#utility.yul\":3711:3880   */\n    tag_92:\n        /* \"#utility.yul\":3795:3806   */\n      0x00\n        /* \"#utility.yul\":3829:3835   */\n      dup3\n        /* \"#utility.yul\":3824:3827   */\n      dup3\n        /* \"#utility.yul\":3817:3836   */\n      mstore\n        /* \"#utility.yul\":3869:3873   */\n      0x20\n        /* \"#utility.yul\":3864:3867   */\n      dup3\n        /* \"#utility.yul\":3860:3874   */\n      add\n        /* \"#utility.yul\":3845:3874   */\n      swap1\n      pop\n        /* \"#utility.yul\":3711:3880   */\n      swap3\n      swap2\n      pop\n      pop\n      jump\t// out\n        /* \"#utility.yul\":3886:3963   */\n    tag_100:\n        /* \"#utility.yul\":3923:3930   */\n      0x00\n        /* \"#utility.yul\":3952:3957   */\n      dup2\n        /* \"#utility.yul\":3941:3957   */\n      swap1\n      pop\n        /* \"#utility.yul\":3886:3963   */\n      swap2\n      swap1\n      pop\n      jump\t// out\n        /* \"#utility.yul\":3969:4123   */\n    tag_63:\n        /* \"#utility.yul\":4053:4059   */\n      dup3\n        /* \"#utility.yul\":4048:4051   */\n      dup2\n        /* \"#utility.yul\":4043:4046   */\n      dup4\n        /* \"#utility.yul\":4030:4060   */\n      calldatacopy\n        /* \"#utility.yul\":4115:4116   */\n      0x00\n        /* \"#utility.yul\":4106:4112   */\n      dup4\n        /* \"#utility.yul\":4101:4104   */\n      dup4\n        /* \"#utility.yul\":4097:4113   */\n      add\n        /* \"#utility.yul\":4090:4117   */\n      mstore\n        /* \"#utility.yul\":3969:4123   */\n      pop\n      pop\n      pop\n      jump\t// out\n        /* \"#utility.yul\":4129:4436   */\n    tag_94:\n        /* \"#utility.yul\":4197:4198   */\n      0x00\n        /* \"#utility.yul\":4207:4320   */\n    tag_122:\n        /* \"#utility.yul\":4221:4227   */\n      dup4\n        /* \"#utility.yul\":4218:4219   */\n      dup2\n        /* \"#utility.yul\":4215:4228   */\n      lt\n        /* \"#utility.yul\":4207:4320   */\n      iszero\n      tag_124\n      jumpi\n        /* \"#utility.yul\":4306:4307   */\n      dup1\n        /* \"#utility.yul\":4301:4304   */\n      dup3\n        /* \"#utility.yul\":4297:4308   */\n      add\n        /* \"#utility.yul\":4291:4309   */\n      mload\n        /* \"#utility.yul\":4287:4288   */\n      dup2\n        /* \"#utility.yul\":4282:4285   */\n      dup5\n        /* \"#utility.yul\":4278:4289   */\n      add\n        /* \"#utility.yul\":4271:4310   */\n      mstore\n        /* \"#utility.yul\":4243:4245   */\n      0x20\n        /* \"#utility.yul\":4240:4241   */\n      dup2\n        /* \"#utility.yul\":4236:4246   */\n      add\n        /* \"#utility.yul\":4231:4246   */\n      swap1\n      pop\n        /* \"#utility.yul\":4207:4320   */\n      jump(tag_122)\n    tag_124:\n        /* \"#utility.yul\":4338:4344   */\n      dup4\n        /* \"#utility.yul\":4335:4336   */\n      dup2\n        /* \"#utility.yul\":4332:4345   */\n      gt\n        /* \"#utility.yul\":4329:4430   */\n      iszero\n      tag_125\n      jumpi\n        /* \"#utility.yul\":4418:4419   */\n      0x00\n        /* \"#utility.yul\":4409:4415   */\n      dup5\n        /* \"#utility.yul\":4404:4407   */\n      dup5\n        /* \"#utility.yul\":4400:4416   */\n      add\n        /* \"#utility.yul\":4393:4420   */\n      mstore\n        /* \"#utility.yul\":4329:4430   */\n    tag_125:\n        /* \"#utility.yul\":4178:4436   */\n      pop\n        /* \"#utility.yul\":4129:4436   */\n      pop\n      pop\n      pop\n      jump\t// out\n        /* \"#utility.yul\":4442:4762   */\n    tag_33:\n        /* \"#utility.yul\":4486:4492   */\n      0x00\n        /* \"#utility.yul\":4523:4524   */\n      0x02\n        /* \"#utility.yul\":4517:4521   */\n      dup3\n        /* \"#utility.yul\":4513:4525   */\n      div\n        /* \"#utility.yul\":4503:4525   */\n      swap1\n      pop\n        /* \"#utility.yul\":4570:4571   */\n      0x01\n        /* \"#utility.yul\":4564:4568   */\n      dup3\n        /* \"#utility.yul\":4560:4572   */\n      and\n        /* \"#utility.yul\":4591:4609   */\n      dup1\n        /* \"#utility.yul\":4581:4662   */\n      tag_127\n      jumpi\n        /* \"#utility.yul\":4647:4651   */\n      0x7f\n        /* \"#utility.yul\":4639:4645   */\n      dup3\n        /* \"#utility.yul\":4635:4652   */\n      and\n        /* \"#utility.yul\":4625:4652   */\n      swap2\n      pop\n        /* \"#utility.yul\":4581:4662   */\n    tag_127:\n        /* \"#utility.yul\":4709:4711   */\n      0x20\n        /* \"#utility.yul\":4701:4707   */\n      dup3\n        /* \"#utility.yul\":4698:4712   */\n      lt\n        /* \"#utility.yul\":4678:4696   */\n      dup2\n        /* \"#utility.yul\":4675:4713   */\n      eq\n        /* \"#utility.yul\":4672:4756   */\n      iszero\n      tag_128\n      jumpi\n        /* \"#utility.yul\":4728:4746   */\n      tag_129\n      tag_130\n      jump\t// in\n    tag_129:\n        /* \"#utility.yul\":4672:4756   */\n    tag_128:\n        /* \"#utility.yul\":4493:4762   */\n      pop\n        /* \"#utility.yul\":4442:4762   */\n      swap2\n      swap1\n      pop\n      jump\t// out\n        /* \"#utility.yul\":4768:5049   */\n    tag_110:\n        /* \"#utility.yul\":4851:4878   */\n      tag_132\n        /* \"#utility.yul\":4873:4877   */\n      dup3\n        /* \"#utility.yul\":4851:4878   */\n      tag_96\n      jump\t// in\n    tag_132:\n        /* \"#utility.yul\":4843:4849   */\n      dup2\n        /* \"#utility.yul\":4839:4879   */\n      add\n        /* \"#utility.yul\":4981:4987   */\n      dup2\n        /* \"#utility.yul\":4969:4979   */\n      dup2\n        /* \"#utility.yul\":4966:4988   */\n      lt\n        /* \"#utility.yul\":4945:4963   */\n      0xffffffffffffffff\n        /* \"#utility.yul\":4933:4943   */\n      dup3\n        /* \"#utility.yul\":4930:4964   */\n      gt\n        /* \"#utility.yul\":4927:4989   */\n      or\n        /* \"#utility.yul\":4924:5012   */\n      iszero\n      tag_133\n      jumpi\n        /* \"#utility.yul\":4992:5010   */\n      tag_134\n      tag_115\n      jump\t// in\n    tag_134:\n        /* \"#utility.yul\":4924:5012   */\n    tag_133:\n        /* \"#utility.yul\":5032:5042   */\n      dup1\n        /* \"#utility.yul\":5028:5030   */\n      0x40\n        /* \"#utility.yul\":5021:5043   */\n      mstore\n        /* \"#utility.yul\":4811:5049   */\n      pop\n        /* \"#utility.yul\":4768:5049   */\n      pop\n      pop\n      jump\t// out\n        /* \"#utility.yul\":5055:5235   */\n    tag_130:\n        /* \"#utility.yul\":5103:5180   */\n      0x4e487b7100000000000000000000000000000000000000000000000000000000\n        /* \"#utility.yul\":5100:5101   */\n      0x00\n        /* \"#utility.yul\":5093:5181   */\n      mstore\n        /* \"#utility.yul\":5200:5204   */\n      0x22\n        /* \"#utility.yul\":5197:5198   */\n      0x04\n        /* \"#utility.yul\":5190:5205   */\n      mstore\n        /* \"#utility.yul\":5224:5228   */\n      0x24\n        /* \"#utility.yul\":5221:5222   */\n      0x00\n        /* \"#utility.yul\":5214:5229   */\n      revert\n        /* \"#utility.yul\":5241:5421   */\n    tag_115:\n        /* \"#utility.yul\":5289:5366   */\n      0x4e487b7100000000000000000000000000000000000000000000000000000000\n        /* \"#utility.yul\":5286:5287   */\n      0x00\n        /* \"#utility.yul\":5279:5367   */\n      mstore\n        /* \"#utility.yul\":5386:5390   */\n      0x41\n        /* \"#utility.yul\":5383:5384   */\n      0x04\n        /* \"#utility.yul\":5376:5391   */\n      mstore\n        /* \"#utility.yul\":5410:5414   */\n      0x24\n        /* \"#utility.yul\":5407:5408   */\n      0x00\n        /* \"#utility.yul\":5400:5415   */\n      revert\n        /* \"#utility.yul\":5427:5544   */\n    tag_68:\n        /* \"#utility.yul\":5536:5537   */\n      0x00\n        /* \"#utility.yul\":5533:5534   */\n      dup1\n        /* \"#utility.yul\":5526:5538   */\n      revert\n        /* \"#utility.yul\":5550:5667   */\n    tag_61:\n        /* \"#utility.yul\":5659:5660   */\n      0x00\n        /* \"#utility.yul\":5656:5657   */\n      dup1\n        /* \"#utility.yul\":5649:5661   */\n      revert\n        /* \"#utility.yul\":5673:5790   */\n    tag_85:\n        /* \"#utility.yul\":5782:5783   */\n      0x00\n        /* \"#utility.yul\":5779:5780   */\n      dup1\n        /* \"#utility.yul\":5772:5784   */\n      revert\n        /* \"#utility.yul\":5796:5913   */\n    tag_77:\n        /* \"#utility.yul\":5905:5906   */\n      0x00\n        /* \"#utility.yul\":5902:5903   */\n      dup1\n        /* \"#utility.yul\":5895:5907   */\n      revert\n        /* \"#utility.yul\":5919:6021   */\n    tag_96:\n        /* \"#utility.yul\":5960:5966   */\n      0x00\n        /* \"#utility.yul\":6011:6013   */\n      0x1f\n        /* \"#utility.yul\":6007:6014   */\n      not\n        /* \"#utility.yul\":6002:6004   */\n      0x1f\n        /* \"#utility.yul\":5995:6000   */\n      dup4\n        /* \"#utility.yul\":5991:6005   */\n      add\n        /* \"#utility.yul\":5987:6015   */\n      and\n        /* \"#utility.yul\":5977:6015   */\n      swap1\n      pop\n        /* \"#utility.yul\":5919:6021   */\n      swap2\n      swap1\n      pop\n      jump\t// out\n        /* \"#utility.yul\":6027:6149   */\n    tag_73:\n        /* \"#utility.yul\":6100:6124   */\n      tag_143\n        /* \"#utility.yul\":6118:6123   */\n      dup2\n        /* \"#utility.yul\":6100:6124   */\n      tag_100\n      jump\t// in\n    tag_143:\n        /* \"#utility.yul\":6093:6098   */\n      dup2\n        /* \"#utility.yul\":6090:6125   */\n      eq\n        /* \"#utility.yul\":6080:6143   */\n      tag_144\n      jumpi\n        /* \"#utility.yul\":6139:6140   */\n      0x00\n        /* \"#utility.yul\":6136:6137   */\n      dup1\n        /* \"#utility.yul\":6129:6141   */\n      revert\n        /* \"#utility.yul\":6080:6143   */\n    tag_144:\n        /* \"#utility.yul\":6027:6149   */\n      pop\n      jump\t// out\n\n    auxdata: 0xa26469706673582212200fae640541274d72a7a20797aae4db68196a08fb01885c025335c3f1e1ac088d64736f6c63430008070033\n}\n",
				"bytecode": {
					"linkReferences": {},
					"object": "608060405234801561001057600080fd5b5061067e806100206000396000f3fe608060405234801561001057600080fd5b50600436106100575760003560e01c80632e64cec11461005c578063471f7cdf1461007a5780636057361d146100985780639e7a13ad146100b4578063bc832d4e146100e5575b600080fd5b610064610101565b6040516100719190610472565b60405180910390f35b61008261010a565b60405161008f9190610472565b60405180910390f35b6100b260048036038101906100ad9190610371565b610110565b005b6100ce60048036038101906100c99190610371565b61011a565b6040516100dc929190610442565b60405180910390f35b6100ff60048036038101906100fa919061039e565b6101d6565b005b60008054905090565b60005481565b8060008190555050565b6001818154811061012a57600080fd5b906000526020600020906002020160009150905080600001805461014d9061054b565b80601f01602080910402602001604051908101604052809291908181526020018280546101799061054b565b80156101c65780601f1061019b576101008083540402835291602001916101c6565b820191906000526020600020905b8154815290600101906020018083116101a957829003601f168201915b5050505050908060010154905082565b6000604051806040016040528083815260200184815250905060018190806001815401808255809150506001900390600052602060002090600202016000909190919091506000820151816000019080519060200190610237929190610249565b50602082015181600101555050505050565b8280546102559061054b565b90600052602060002090601f01602090048101928261027757600085556102be565b82601f1061029057805160ff19168380011785556102be565b828001600101855582156102be579182015b828111156102bd5782518255916020019190600101906102a2565b5b5090506102cb91906102cf565b5090565b5b808211156102e85760008160009055506001016102d0565b5090565b60006102ff6102fa846104b2565b61048d565b90508281526020810184848401111561031b5761031a610611565b5b610326848285610509565b509392505050565b600082601f8301126103435761034261060c565b5b81356103538482602086016102ec565b91505092915050565b60008135905061036b81610631565b92915050565b6000602082840312156103875761038661061b565b5b60006103958482850161035c565b91505092915050565b600080604083850312156103b5576103b461061b565b5b60006103c38582860161035c565b925050602083013567ffffffffffffffff8111156103e4576103e3610616565b5b6103f08582860161032e565b9150509250929050565b6000610405826104e3565b61040f81856104ee565b935061041f818560208601610518565b61042881610620565b840191505092915050565b61043c816104ff565b82525050565b6000604082019050818103600083015261045c81856103fa565b905061046b6020830184610433565b9392505050565b60006020820190506104876000830184610433565b92915050565b60006104976104a8565b90506104a3828261057d565b919050565b6000604051905090565b600067ffffffffffffffff8211156104cd576104cc6105dd565b5b6104d682610620565b9050602081019050919050565b600081519050919050565b600082825260208201905092915050565b6000819050919050565b82818337600083830152505050565b60005b8381101561053657808201518184015260208101905061051b565b83811115610545576000848401525b50505050565b6000600282049050600182168061056357607f821691505b60208210811415610577576105766105ae565b5b50919050565b61058682610620565b810181811067ffffffffffffffff821117156105a5576105a46105dd565b5b80604052505050565b7f4e487b7100000000000000000000000000000000000000000000000000000000600052602260045260246000fd5b7f4e487b7100000000000000000000000000000000000000000000000000000000600052604160045260246000fd5b600080fd5b600080fd5b600080fd5b600080fd5b6000601f19601f8301169050919050565b61063a816104ff565b811461064557600080fd5b5056fea26469706673582212200fae640541274d72a7a20797aae4db68196a08fb01885c025335c3f1e1ac088d64736f6c63430008070033",
					"opcodes": "PUSH1 0x80 PUSH1 0x40 MSTORE CALLVALUE DUP1 ISZERO PUSH2 0x10 JUMPI PUSH1 0x0 DUP1 REVERT JUMPDEST POP PUSH2 0x67E DUP1 PUSH2 0x20 PUSH1 0x0 CODECOPY PUSH1 0x0 RETURN INVALID PUSH1 0x80 PUSH1 0x40 MSTORE CALLVALUE DUP1 ISZERO PUSH2 0x10 JUMPI PUSH1 0x0 DUP1 REVERT JUMPDEST POP PUSH1 0x4 CALLDATASIZE LT PUSH2 0x57 JUMPI PUSH1 0x0 CALLDATALOAD PUSH1 0xE0 SHR DUP1 PUSH4 0x2E64CEC1 EQ PUSH2 0x5C JUMPI DUP1 PUSH4 0x471F7CDF EQ PUSH2 0x7A JUMPI DUP1 PUSH4 0x6057361D EQ PUSH2 0x98 JUMPI DUP1 PUSH4 0x9E7A13AD EQ PUSH2 0xB4 JUMPI DUP1 PUSH4 0xBC832D4E EQ PUSH2 0xE5 JUMPI JUMPDEST PUSH1 0x0 DUP1 REVERT JUMPDEST PUSH2 0x64 PUSH2 0x101 JUMP JUMPDEST PUSH1 0x40 MLOAD PUSH2 0x71 SWAP2 SWAP1 PUSH2 0x472 JUMP JUMPDEST PUSH1 0x40 MLOAD DUP1 SWAP2 SUB SWAP1 RETURN JUMPDEST PUSH2 0x82 PUSH2 0x10A JUMP JUMPDEST PUSH1 0x40 MLOAD PUSH2 0x8F SWAP2 SWAP1 PUSH2 0x472 JUMP JUMPDEST PUSH1 0x40 MLOAD DUP1 SWAP2 SUB SWAP1 RETURN JUMPDEST PUSH2 0xB2 PUSH1 0x4 DUP1 CALLDATASIZE SUB DUP2 ADD SWAP1 PUSH2 0xAD SWAP2 SWAP1 PUSH2 0x371 JUMP JUMPDEST PUSH2 0x110 JUMP JUMPDEST STOP JUMPDEST PUSH2 0xCE PUSH1 0x4 DUP1 CALLDATASIZE SUB DUP2 ADD SWAP1 PUSH2 0xC9 SWAP2 SWAP1 PUSH2 0x371 JUMP JUMPDEST PUSH2 0x11A JUMP JUMPDEST PUSH1 0x40 MLOAD PUSH2 0xDC SWAP3 SWAP2 SWAP1 PUSH2 0x442 JUMP JUMPDEST PUSH1 0x40 MLOAD DUP1 SWAP2 SUB SWAP1 RETURN JUMPDEST PUSH2 0xFF PUSH1 0x4 DUP1 CALLDATASIZE SUB DUP2 ADD SWAP1 PUSH2 0xFA SWAP2 SWAP1 PUSH2 0x39E JUMP JUMPDEST PUSH2 0x1D6 JUMP JUMPDEST STOP JUMPDEST PUSH1 0x0 DUP1 SLOAD SWAP1 POP SWAP1 JUMP JUMPDEST PUSH1 0x0 SLOAD DUP2 JUMP JUMPDEST DUP1 PUSH1 0x0 DUP2 SWAP1 SSTORE POP POP JUMP JUMPDEST PUSH1 0x1 DUP2 DUP2 SLOAD DUP2 LT PUSH2 0x12A JUMPI PUSH1 0x0 DUP1 REVERT JUMPDEST SWAP1 PUSH1 0x0 MSTORE PUSH1 0x20 PUSH1 0x0 KECCAK256 SWAP1 PUSH1 0x2 MUL ADD PUSH1 0x0 SWAP2 POP SWAP1 POP DUP1 PUSH1 0x0 ADD DUP1 SLOAD PUSH2 0x14D SWAP1 PUSH2 0x54B JUMP JUMPDEST DUP1 PUSH1 0x1F ADD PUSH1 0x20 DUP1 SWAP2 DIV MUL PUSH1 0x20 ADD PUSH1 0x40 MLOAD SWAP1 DUP2 ADD PUSH1 0x40 MSTORE DUP1 SWAP3 SWAP2 SWAP1 DUP2 DUP2 MSTORE PUSH1 0x20 ADD DUP3 DUP1 SLOAD PUSH2 0x179 SWAP1 PUSH2 0x54B JUMP JUMPDEST DUP1 ISZERO PUSH2 0x1C6 JUMPI DUP1 PUSH1 0x1F LT PUSH2 0x19B JUMPI PUSH2 0x100 DUP1 DUP4 SLOAD DIV MUL DUP4 MSTORE SWAP2 PUSH1 0x20 ADD SWAP2 PUSH2 0x1C6 JUMP JUMPDEST DUP3 ADD SWAP2 SWAP1 PUSH1 0x0 MSTORE PUSH1 0x20 PUSH1 0x0 KECCAK256 SWAP1 JUMPDEST DUP2 SLOAD DUP2 MSTORE SWAP1 PUSH1 0x1 ADD SWAP1 PUSH1 0x20 ADD DUP1 DUP4 GT PUSH2 0x1A9 JUMPI DUP3 SWAP1 SUB PUSH1 0x1F AND DUP3 ADD SWAP2 JUMPDEST POP POP POP POP POP SWAP1 DUP1 PUSH1 0x1 ADD SLOAD SWAP1 POP DUP3 JUMP JUMPDEST PUSH1 0x0 PUSH1 0x40 MLOAD DUP1 PUSH1 0x40 ADD PUSH1 0x40 MSTORE DUP1 DUP4 DUP2 MSTORE PUSH1 0x20 ADD DUP5 DUP2 MSTORE POP SWAP1 POP PUSH1 0x1 DUP2 SWAP1 DUP1 PUSH1 0x1 DUP2 SLOAD ADD DUP1 DUP3 SSTORE DUP1 SWAP2 POP POP PUSH1 0x1 SWAP1 SUB SWAP1 PUSH1 0x0 MSTORE PUSH1 0x20 PUSH1 0x0 KECCAK256 SWAP1 PUSH1 0x2 MUL ADD PUSH1 0x0 SWAP1 SWAP2 SWAP1 SWAP2 SWAP1 SWAP2 POP PUSH1 0x0 DUP3 ADD MLOAD DUP2 PUSH1 0x0 ADD SWAP1 DUP1 MLOAD SWAP1 PUSH1 0x20 ADD SWAP1 PUSH2 0x237 SWAP3 SWAP2 SWAP1 PUSH2 0x249 JUMP JUMPDEST POP PUSH1 0x20 DUP3 ADD MLOAD DUP2 PUSH1 0x1 ADD SSTORE POP POP POP POP POP JUMP JUMPDEST DUP3 DUP1 SLOAD PUSH2 0x255 SWAP1 PUSH2 0x54B JUMP JUMPDEST SWAP1 PUSH1 0x0 MSTORE PUSH1 0x20 PUSH1 0x0 KECCAK256 SWAP1 PUSH1 0x1F ADD PUSH1 0x20 SWAP1 DIV DUP2 ADD SWAP3 DUP3 PUSH2 0x277 JUMPI PUSH1 0x0 DUP6 SSTORE PUSH2 0x2BE JUMP JUMPDEST DUP3 PUSH1 0x1F LT PUSH2 0x290 JUMPI DUP1 MLOAD PUSH1 0xFF NOT AND DUP4 DUP1 ADD OR DUP6 SSTORE PUSH2 0x2BE JUMP JUMPDEST DUP3 DUP1 ADD PUSH1 0x1 ADD DUP6 SSTORE DUP3 ISZERO PUSH2 0x2BE JUMPI SWAP2 DUP3 ADD JUMPDEST DUP3 DUP2 GT ISZERO PUSH2 0x2BD JUMPI DUP3 MLOAD DUP3 SSTORE SWAP2 PUSH1 0x20 ADD SWAP2 SWAP1 PUSH1 0x1 ADD SWAP1 PUSH2 0x2A2 JUMP JUMPDEST JUMPDEST POP SWAP1 POP PUSH2 0x2CB SWAP2 SWAP1 PUSH2 0x2CF JUMP JUMPDEST POP SWAP1 JUMP JUMPDEST JUMPDEST DUP1 DUP3 GT ISZERO PUSH2 0x2E8 JUMPI PUSH1 0x0 DUP2 PUSH1 0x0 SWAP1 SSTORE POP PUSH1 0x1 ADD PUSH2 0x2D0 JUMP JUMPDEST POP SWAP1 JUMP JUMPDEST PUSH1 0x0 PUSH2 0x2FF PUSH2 0x2FA DUP5 PUSH2 0x4B2 JUMP JUMPDEST PUSH2 0x48D JUMP JUMPDEST SWAP1 POP DUP3 DUP2 MSTORE PUSH1 0x20 DUP2 ADD DUP5 DUP5 DUP5 ADD GT ISZERO PUSH2 0x31B JUMPI PUSH2 0x31A PUSH2 0x611 JUMP JUMPDEST JUMPDEST PUSH2 0x326 DUP5 DUP3 DUP6 PUSH2 0x509 JUMP JUMPDEST POP SWAP4 SWAP3 POP POP POP JUMP JUMPDEST PUSH1 0x0 DUP3 PUSH1 0x1F DUP4 ADD SLT PUSH2 0x343 JUMPI PUSH2 0x342 PUSH2 0x60C JUMP JUMPDEST JUMPDEST DUP2 CALLDATALOAD PUSH2 0x353 DUP5 DUP3 PUSH1 0x20 DUP7 ADD PUSH2 0x2EC JUMP JUMPDEST SWAP2 POP POP SWAP3 SWAP2 POP POP JUMP JUMPDEST PUSH1 0x0 DUP2 CALLDATALOAD SWAP1 POP PUSH2 0x36B DUP2 PUSH2 0x631 JUMP JUMPDEST SWAP3 SWAP2 POP POP JUMP JUMPDEST PUSH1 0x0 PUSH1 0x20 DUP3 DUP5 SUB SLT ISZERO PUSH2 0x387 JUMPI PUSH2 0x386 PUSH2 0x61B JUMP JUMPDEST JUMPDEST PUSH1 0x0 PUSH2 0x395 DUP5 DUP3 DUP6 ADD PUSH2 0x35C JUMP JUMPDEST SWAP2 POP POP SWAP3 SWAP2 POP POP JUMP JUMPDEST PUSH1 0x0 DUP1 PUSH1 0x40 DUP4 DUP6 SUB SLT ISZERO PUSH2 0x3B5 JUMPI PUSH2 0x3B4 PUSH2 0x61B JUMP JUMPDEST JUMPDEST PUSH1 0x0 PUSH2 0x3C3 DUP6 DUP3 DUP7 ADD PUSH2 0x35C JUMP JUMPDEST SWAP3 POP POP PUSH1 0x20 DUP4 ADD CALLDATALOAD PUSH8 0xFFFFFFFFFFFFFFFF DUP2 GT ISZERO PUSH2 0x3E4 JUMPI PUSH2 0x3E3 PUSH2 0x616 JUMP JUMPDEST JUMPDEST PUSH2 0x3F0 DUP6 DUP3 DUP7 ADD PUSH2 0x32E JUMP JUMPDEST SWAP2 POP POP SWAP3 POP SWAP3 SWAP1 POP JUMP JUMPDEST PUSH1 0x0 PUSH2 0x405 DUP3 PUSH2 0x4E3 JUMP JUMPDEST PUSH2 0x40F DUP2 DUP6 PUSH2 0x4EE JUMP JUMPDEST SWAP4 POP PUSH2 0x41F DUP2 DUP6 PUSH1 0x20 DUP7 ADD PUSH2 0x518 JUMP JUMPDEST PUSH2 0x428 DUP2 PUSH2 0x620 JUMP JUMPDEST DUP5 ADD SWAP2 POP POP SWAP3 SWAP2 POP POP JUMP JUMPDEST PUSH2 0x43C DUP2 PUSH2 0x4FF JUMP JUMPDEST DUP3 MSTORE POP POP JUMP JUMPDEST PUSH1 0x0 PUSH1 0x40 DUP3 ADD SWAP1 POP DUP2 DUP2 SUB PUSH1 0x0 DUP4 ADD MSTORE PUSH2 0x45C DUP2 DUP6 PUSH2 0x3FA JUMP JUMPDEST SWAP1 POP PUSH2 0x46B PUSH1 0x20 DUP4 ADD DUP5 PUSH2 0x433 JUMP JUMPDEST SWAP4 SWAP3 POP POP POP JUMP JUMPDEST PUSH1 0x0 PUSH1 0x20 DUP3 ADD SWAP1 POP PUSH2 0x487 PUSH1 0x0 DUP4 ADD DUP5 PUSH2 0x433 JUMP JUMPDEST SWAP3 SWAP2 POP POP JUMP JUMPDEST PUSH1 0x0 PUSH2 0x497 PUSH2 0x4A8 JUMP JUMPDEST SWAP1 POP PUSH2 0x4A3 DUP3 DUP3 PUSH2 0x57D JUMP JUMPDEST SWAP2 SWAP1 POP JUMP JUMPDEST PUSH1 0x0 PUSH1 0x40 MLOAD SWAP1 POP SWAP1 JUMP JUMPDEST PUSH1 0x0 PUSH8 0xFFFFFFFFFFFFFFFF DUP3 GT ISZERO PUSH2 0x4CD JUMPI PUSH2 0x4CC PUSH2 0x5DD JUMP JUMPDEST JUMPDEST PUSH2 0x4D6 DUP3 PUSH2 0x620 JUMP JUMPDEST SWAP1 POP PUSH1 0x20 DUP2 ADD SWAP1 POP SWAP2 SWAP1 POP JUMP JUMPDEST PUSH1 0x0 DUP2 MLOAD SWAP1 POP SWAP2 SWAP1 POP JUMP JUMPDEST PUSH1 0x0 DUP3 DUP3 MSTORE PUSH1 0x20 DUP3 ADD SWAP1 POP SWAP3 SWAP2 POP POP JUMP JUMPDEST PUSH1 0x0 DUP2 SWAP1 POP SWAP2 SWAP1 POP JUMP JUMPDEST DUP3 DUP2 DUP4 CALLDATACOPY PUSH1 0x0 DUP4 DUP4 ADD MSTORE POP POP POP JUMP JUMPDEST PUSH1 0x0 JUMPDEST DUP4 DUP2 LT ISZERO PUSH2 0x536 JUMPI DUP1 DUP3 ADD MLOAD DUP2 DUP5 ADD MSTORE PUSH1 0x20 DUP2 ADD SWAP1 POP PUSH2 0x51B JUMP JUMPDEST DUP4 DUP2 GT ISZERO PUSH2 0x545 JUMPI PUSH1 0x0 DUP5 DUP5 ADD MSTORE JUMPDEST POP POP POP POP JUMP JUMPDEST PUSH1 0x0 PUSH1 0x2 DUP3 DIV SWAP1 POP PUSH1 0x1 DUP3 AND DUP1 PUSH2 0x563 JUMPI PUSH1 0x7F DUP3 AND SWAP2 POP JUMPDEST PUSH1 0x20 DUP3 LT DUP2 EQ ISZERO PUSH2 0x577 JUMPI PUSH2 0x576 PUSH2 0x5AE JUMP JUMPDEST JUMPDEST POP SWAP2 SWAP1 POP JUMP JUMPDEST PUSH2 0x586 DUP3 PUSH2 0x620 JUMP JUMPDEST DUP2 ADD DUP2 DUP2 LT PUSH8 0xFFFFFFFFFFFFFFFF DUP3 GT OR ISZERO PUSH2 0x5A5 JUMPI PUSH2 0x5A4 PUSH2 0x5DD JUMP JUMPDEST JUMPDEST DUP1 PUSH1 0x40 MSTORE POP POP POP JUMP JUMPDEST PUSH32 0x4E487B7100000000000000000000000000000000000000000000000000000000 PUSH1 0x0 MSTORE PUSH1 0x22 PUSH1 0x4 MSTORE PUSH1 0x24 PUSH1 0x0 REVERT JUMPDEST PUSH32 0x4E487B7100000000000000000000000000000000000000000000000000000000 PUSH1 0x0 MSTORE PUSH1 0x41 PUSH1 0x4 MSTORE PUSH1 0x24 PUSH1 0x0 REVERT JUMPDEST PUSH1 0x0 DUP1 REVERT JUMPDEST PUSH1 0x0 DUP1 REVERT JUMPDEST PUSH1 0x0 DUP1 REVERT JUMPDEST PUSH1 0x0 DUP1 REVERT JUMPDEST PUSH1 0x0 PUSH1 0x1F NOT PUSH1 0x1F DUP4 ADD AND SWAP1 POP SWAP2 SWAP1 POP JUMP JUMPDEST PUSH2 0x63A DUP2 PUSH2 0x4FF JUMP JUMPDEST DUP2 EQ PUSH2 0x645 JUMPI PUSH1 0x0 DUP1 REVERT JUMPDEST POP JUMP INVALID LOG2 PUSH5 0x6970667358 0x22 SLT KECCAK256 0xF 0xAE PUSH5 0x541274D72 0xA7 LOG2 SMOD SWAP8 0xAA 0xE4 0xDB PUSH9 0x196A08FB01885C0253 CALLDATALOAD 0xC3 CALL 0xE1 0xAC ADDMOD DUP14 PUSH5 0x736F6C6343 STOP ADDMOD SMOD STOP CALLER "
				},
				"gasEstimates": {
					"creation": {
						"codeDepositCost": "332400",
						"executionCost": "368",
						"totalCost": "332768"
					},
					"external": {
						"addPerson(uint256,string)": "infinite",
						"favoriteNumber()": "2429",
						"people(uint256)": "infinite",
						"retrieve()": "2415",
						"store(uint256)": "22542"
					}
				},
				"methodIdentifiers": {
					"addPerson(uint256,string)": "bc832d4e",
					"favoriteNumber()": "471f7cdf",
					"people(uint256)": "9e7a13ad",
					"retrieve()": "2e64cec1",
					"store(uint256)": "6057361d"
				}
			},
			"storageLayout": {
				"storage": [
					{
						"astId": 22,
						"contract": "contracts/SimpleStorage.sol:SimpleStorage",
						"label": "favoriteNumber",
						"offset": 0,
						"slot": "0",
						"type": "t_uint256"
					},
					{
						"astId": 31,
						"contract": "contracts/SimpleStorage.sol:SimpleStorage",
						"label": "people",
						"offset": 0,
						"slot": "1",
						"type": "t_array(t_struct(People)27_storage)dyn_storage"
					}
				],
				"types": {
					"t_array(t_struct(People)27_storage)dyn_storage": {
						"base": "t_struct(People)27_storage",
						"encoding": "dynamic_array",
						"label": "struct SimpleStorage.People[]",
						"numberOfBytes": "32"
					},
					"t_string_storage": {
						"encoding": "bytes",
						"label": "string",
						"numberOfBytes": "32"
					},
					"t_struct(People)27_storage": {
						"encoding": "inplace",
						"label": "struct SimpleStorage.People",
						"members": [
							{
								"astId": 24,
								"contract": "contracts/SimpleStorage.sol:SimpleStorage",
								"label": "name",
								"offset": 0,
								"slot": "0",
								"type": "t_string_storage"
							},
							{
								"astId": 26,
								"contract": "contracts/SimpleStorage.sol:SimpleStorage",
								"label": "favoriteNumber",
								"offset": 0,
								"slot": "1",
								"type": "t_uint256"
							}
						],
						"numberOfBytes": "64"
					},
					"t_uint256": {
						"encoding": "inplace",
						"label": "uint256",
						"numberOfBytes": "32"
					}
				}
			},
			"userdoc": {
				"kind": "user",
				"methods": {},
				"version": 1
			}
		}
	}
}